:020000040000fa
:080000000002040000000000f2
:020000040000fa
:10040000af4322000e7f22000e0188000000000092
:100410000c000700e060230001002000110007002d
:10042000000020000000e000020032000000020096
:1004300000000000902d0200000000000040da00e3
:100440000000fe004440a900003920000000e00048
:100450000300320000002000a00188004440a800f2
:100460000000060091018800800078000000eb0089
:1004700015003700e280400032a0b4009101ba00bc
:10048000e280400032a0b4009102ba00e280400055
:1004900032a0b4000002eb00472bde00f507b200eb
:1004a000602ce10004003a000059eb008301e900f0
:1004b000fdff3e00040037006128e100010032002a
:1004c0000082eb00040007001101ba000200e00006
:1004d000e8ff3a00000006003159ba008301e90044
:1004e0000c0032002159ba008301e90008003200f3
:1004f0000400e00003003a00e280400032a0b400b3
:10050000f5ff370011d9ba008301e900faff3a007c
:100510008100e800e180400032a0b4000000060045
:100520000040da000000fe0003f0a200889fbe0039
:100530008a9fbe008c1f7800840107008b01330066
:100540006450e1004f0032006420e10052003200ac
:1005500003826c0007003b000905d0000306d000b1
:10056000820f54000c065d000200390002003200c8
:1005700089017800030678008582550004003d005b
:100580000003fd008103fd008502ea008b85420027
:10059000840f720002003b0060001000e080180031
:1005a0006011b8000005eb007a28e1000a0039006c
:1005b00006007800c75ddd00f707b2008780750090
:1005c0002d003700828171000a017800610560000a
:1005d0008180d1000080d3008502e900f9ff3b0053
:1005e000060440008784480002003b0060041400b9
:1005f000e0841c000988a300070032008a81710092
:1006000082817100610164008904d1000884d300f3
:100610008b05e800170037000978a30013003a00a3
:100620000b00e000130034008b05e90008044400cf
:1006300089844c000a4474000978a3000d003a0034
:100640000b00e000070034008b05e90008044400bb
:1006500089844c0001003a000b0020000978a300b7
:10066000f7ff32000001eb000200370082817100c9
:100670000a017800fa0007000cf0a70001f0a000c2
:10068000430137006420e10002003a00838f6c00d0
:10069000430133000801be000200be003c013700e8
:1006a000889fbe008a9fbe008c1f7800270107002c
:1006b0002e01330003866c006450e1002e003200ee
:1006c0006420e100330032006150e1002f0032006d
:1006d0006120e1003100320085855500eb07b00054
:1006e0000900200008042000050037000804440029
:1006f00089844c000a0031000603430087834b00c5
:100700000001530081815b00f8ff33000203be004b
:100710000800a0000804440089844c00f6ff39005a
:10072000c639dd0083017300010032001300200090
:100730008904d1000884d3000998a3000500320081
:100740000800a7000300a0008904d1000884d3009a
:100750008b05e8008904d1000884d3000001eb0078
:100760000281d200be00070001f0a1000cf0a7003a
:1007700001f0a000060137006420e100080132000a
:100780000801be000200be00f7ff37006120e10053
:10079000030132006000b800f3ff370000002000c2
:1007a00001f82700f0ff3700839f68000100e00098
:1007b00002003d0060001000e08018000300e0002f
:1007c00002003d0060011100e08119003a010700bc
:1007d0004f00e00002003b0060001000e0801800c5
:1007e00000000600f4ff2f00460137000001be00a4
:1007f000c10007000470a70003f0a1006509b10063
:10080000160032000d0035006828e10006003500b2
:10081000f0ff2f00f1ff27000300e00013003b0072
:100820000100280000000500000040008180480011
:100830008502e900fcff3a0008003700f88f42000b
:1008400002003c008000eb00000005008100d100a8
:100850000080d3008502e800fcff3a000300e000be
:1008600002003b0060001000e0801800000006005d
:10087000889fbe008a9fbe00010578000100e0004d
:100880000400350008003c000000e00020003200b9
:100890000500370060001000e080180002003b00f7
:1008a00001f02c001a0037000004be006011b800ef
:1008b0006b0920000982cf00020039000882cf00b6
:1008c0000441b000694252000e00320008003b00b3
:1008d00082817100610164008904d1000884d30021
:1008e0008b05e8000442e800f9ff3a0005003700f4
:1008f0000804440089844c008b05e9000442e900a7
:10090000fbff3a00560007000af0a70001f0a00024
:100910004f05be004f04be0000000600040020008a
:1009200000003700889fbe008a9fbe008c1f7800a1
:100930004f26dd00850007008c0033006120e100b8
:10094000430032006250e10041003e003e003900a9
:100950006420e1003c003200058255000f003b009e
:100960000402e80038003a00800f5300818f5b00da
:10097000350034000800be0003f0a10001f0a6001d
:1009800003f0a0000cf0a700e8fe0700800037008d
:100990000603430087834b000c46460000055300c6
:1009a00081855b00020033000a03be000c00a0003a
:1009b0000402e900f6ff3b008505780006024300cb
:1009c00087824b0004003a006000b80009f0a700dd
:1009d00001f0a0006e0037000002520081825a0030
:1009e0000704e000040033000603430087834b0044
:1009f0008b05e900faff3700090578000604be0000
:100a00000203be006011b80015000700e00f52009d
:100a1000e08f5a000700350002003c000c08a300dc
:100a2000040032000601be0003f0a0000cf0a70095
:100a3000befe07000a85680001f0a1000af0a700c9
:100a400001f0a000520037000800be00500037003f
:100a5000100220000cf0a600f0f9880050003700ca
:100a600081002000618055000b003d000b0020003c
:100a700061fe2f000100e1001d0034008281710041
:100a8000610164008904d1000884d3000000e800fb
:100a9000faff3a007100200061006400030070005a
:100aa000020060000900320061044400e0844c0050
:100ab0000988a500050032008b05e8006808e10000
:100ac00002003a008904d1000884d300f20f20000c
:100ad0000258e10005003d00c75ddd00f907b200e6
:100ae0008980750008007800000006000bf82700d8
:100af0008b00780000000500c70ade00f107b20095
:100b0000f50fb20008003200e1cf420002003200cf
:100b10000170a00024000500810f70000100320068
:100b20000408050044000500810f700002003a002f
:100b3000140005008502e9000000400081c0480063
:100b4000fcff3b000170a000240005000004be0073
:100b5000e9ff07000003be000405be000200be005e
:100b6000e5ff0700844f7500000006000200be008c
:100b70006450e100050036006420e1000200360008
:100b80000968a30001003a000800be000160a0004f
:100b90004f0678004f05be004f04be00000006005f
:100ba000f0ff2f00f1ff2700f9ff3700811f7800c9
:100bb0000100e00002003d0060001000e08018002d
:100bc0000300e00002003d0060011100e081190017
:100bd000490007004f00e00002003b0060001000e9
:100be000e080180000000600889fbe008a9fbe00bb
:100bf0008c1f7800d5ff0700dcff330003866c00f4
:100c00006450e100240032006420e100270032003b
:100c10006150e100220032006120e1002100320039
:100c20008b854200eb07b1000134b800003ab800f0
:100c30000804420089844a00013ab8000030b80034
:100c40008880400009014a00040033000000400091
:100c500081804800020149008b05e900c909dd00d7
:100c6000830170000100320013002000c814de0070
:100c70004814dd004709de001200b200c808de009b
:100c80000884700076ff070001f0a1000cf0a700b7
:100c900001f0a000beff37006120e100c0ff32007c
:100ca0000801be000200be00f7ff37006150e100fe
:100cb000fcff3a00baff37006022b80006022000ad
:100cc0000000d0008180d2000482d2008582d20050
:100cd0000000a0000202520083825a00030031008b
:100ce0000202420083824a000000a1000603e900dc
:100cf000f3ff3a0000000600efff07000400be000b
:100d000000000600889fbe008a9fbe00841f7800f6
:100d10008eff07004f00780011003300f0ff2f0016
:100d2000838f6c0006003b00040565000a00a700e5
:100d30000800370009f0a600100020000800370066
:100d4000820f5400838f5c000300390010002000e4
:100d500001003e000000200009f0a7000000ea00aa
:100d60004f05be004f04be000000e000000006007a
:100d7000e6874700889fbe008a9fbe008c9fbe000a
:100d80008e1f780000047800810678000100e000e2
:100d900003003200800e7800010037000804e800ec
:100da000984478000900fb00710507008000780076
:100db0000000e000f9ff3a00d0c2b30080cf540039
:100dc00003003a000804e8001bc0b3000500370028
:100dd000b0c2b30080cf540001003a000804e8001c
:100de000814578000005eb000a0778006000b80034
:100df000f0b79f0081bf9f000b48a30005003a0099
:100e0000e0c2b300984f100002003a000b44a0006b
:100e10001e003700984478000900fb000cfd2f00ed
:100e20000c004000e90f50001a003e000b14a00017
:100e30000b00fb00e90f5500110032000048a30031
:100e4000010032000e07e9000a05e800a2002000b8
:100e5000030020007fb097008fb897002507070098
:100e60000cc144000281fb0003002000000041008f
:100e700081804900f0b79f0081bf9f0003003700c9
:100e80000048a30001003a000e07e8000804e8004b
:100e9000d9ff370050c6b30080cf540004003200a1
:100ea0000002eb0050c4b30080cf540032003a007f
:100eb0008801e80093407800d0c2b30080cf500092
:100ec00002003a000b34a00003003700b0c2b300a8
:100ed00080cf500003003a008881e800010037000d
:100ee0008301e8009340780006c3b30086cf50002a
:100ef000fbff32000100fb0005fd2f000500400054
:100f0000e90f500003003600030478000002eb00f4
:100f10001600370006c050000082fb000304e80002
:100f2000184178000200fb0005004000e90f500066
:100f30000e003e006a20b900064151000281fb000c
:100f4000000241000384e800984078000100fb00a3
:100f500005004000e90f500004003e006a21b9007e
:100f600006c050000080fb00020240000b38a300c6
:100f7000010032000402ea00040547000d00e00011
:100f8000030032000b18a30001003200880e780025
:100f90007fb097008fb8970035fe07000004be00b1
:100fa0000006be006011b800d00607006011b8004e
:100fb0000000e0005900320030f82f00800f55008b
:100fc00003003d0020022000f0f9880053003700a4
:100fd00000082000800f55000a0034002002200085
:100fe000f0f988000b08a300030032000200200083
:100ff00003f82f00490037000200200003f8270003
:10100000460037000a00e0001c003d000a05ea0027
:1010100006003700922f2000530125000800be0073
:101020009ffd07000004be006a055500e90f55004a
:10103000f8ff3c000006eb0006003700020020002d
:10104000031224000800be0095fd07000004be0046
:101050000c06e8008a0f5600f8ff3a000806be00aa
:1010600002002000030820000800be009f060700c1
:101070000000e00025003d001c0037000a00e000f1
:1010800007003c0021003700922f2000530125006b
:101090000800be00d4fe07000004be006a0555002b
:1010a000e94f5500f8ff3e000006eb000600370050
:1010b00002002000031224000800be00cafe070040
:1010c0000004be000c06e8008a0f5600f8ff3a0044
:1010d0000806be00f2ff2f00f3f727000800be004d
:1010e000c0fd07000000e000080034000b08a3006a
:1010f0000300320002002000030828000700370028
:101100000200200003082000040037000b08a300a1
:10111000010032000df0a2000c01be000200be0072
:101120004f0778004f06be004f05be004f04be00bb
:101130006f00b100000006008000eb000cff3700dc
:101140000001780000c2b300010037000201e8008e
:101150009240780080cf5000fcff3200e9cf500071
:10116000faff3200d0c2b30080cf500003003a0033
:101170000201e80014c0b300050037000042eb0094
:10118000b0c2b30080cf500001003a000201e80075
:101190008000eb0005fd2f00040037006a08b9004d
:1011a00000804100850040000201e8009201fb0040
:1011b00005804100e90f5000f8ff36000404e0000c
:1011c000010032008100ea00010078000000060002
:1011d000800078003004e000feff3a00010050007b
:1011e0000000e90000000600810178000002eb0029
:1011f0000b003700e44078000104e00003003200f7
:101200000402e80093cf5000040032008180fb000c
:101210001380fb0000805000000006008301e800fe
:10122000820f5200f3ff3a00000005000c00fa00a4
:10123000889fbe0000047800cfb09700f0ff270021
:10124000d0bf9f008004eb0099bf9f0088bf9f0024
:10125000a8bf9f00200c2000b0bf9f0078815700de
:1012600070805700080007000fb897000948780001
:101270000fb8970008045000080078004f04be0023
:101280000080fa0000000600fe874700889fbe002d
:101290008a9fbe008c9fbe008e1f7800f0b79f0013
:1012a0000107780082bf9f000000eb00a0b79f00fd
:1012b0009f0237008006eb0050c2b30080cf500081
:1012c000090032000100fb00ffb097007104070025
:1012d000e10f400096023200afb097008100e800b5
:1012e000a1b79f00920237009e407800d0c2b300a1
:1012f00080cf50000c00320007003c006d405000d1
:1013000080cf50000a0032006b40400080cf500078
:101310000e003a000800370000c3b30080cf500031
:101320000a003a00060037000d30a0000500370023
:101330000d00a000030037000d10a00001003700d1
:101340000d20a0000e07e800e7ff37000d18a300ee
:10135000010032000d00a1000d38a3000100320091
:101360000d20a1000100fb0002fd2f000200400043
:10137000e90f50000e003e000002eb00c4b79f00d2
:1013800082017800cfb297006a28b9001e01fb00e5
:101390000001410003014100c2b79f005e00fb0055
:1013a00003004000e90f50000b003e00f5ff37003e
:1013b0000006eb00ccb79f00a0c2b30080cf500066
:1013c00005003a000fb89700c000780080bf9f006a
:1013d000c1b79f000e07e8000001eb00b2b79f0005
:1013e000e0c2b3009e4f100018003a000de0a000cc
:1013f0008e00e80064405000914f1000020032005f
:10140000010778000c0037000fba9700c40278007b
:1014100084bf9f00b5b79f000e87e8000b00370020
:101420003fb697006a60b900000041000300400029
:10143000b0b79f000e07e8001e01fb0003fd2f0060
:1014400003004100e90f5000f5ff3600be40780070
:10145000e1d79f00c0c6b30080cf50002200320009
:101460000f003c006940500080cf500077003200f0
:1014700004003c000104e000310232006b405000e7
:101480000f00370040c6b30080cf500093003200f9
:101490006540400080cf50008b003a008f0037003d
:1014a00030c7b30080cf50001a00320007003c0064
:1014b0006440500080cf5000110032000040e8002e
:1014c00080cf500080003a000f00370050c7b300b3
:1014d00080cf5000800032006340400080cf500039
:1014e00079003a0009003700000028000d48a300e9
:1014f00001003a000001200080867600d3ff37000b
:101500000d60a000750037000d50a0000d70a00008
:10151000720037008fb897004100780081bf9f00ac
:10152000000478000000e00001003a0008fe2100fd
:101530008004eb00010037008104e8008900780096
:10154000088044001004e000fbff3a003fb1970020
:101550000200e00003003200890f51000100310059
:10156000820478000002eb00e4af9f00cfb2970046
:10157000898f52000200360009805200e0af9f00c0
:101580004368de00e10660001b003a000d067800ab
:1015900009003700ffb0970000022000bd030700dc
:1015a000e10f4000030032002fb097000000e80078
:1015b000a0b79f000c06e800efa89700810f560027
:1015c000f4ff3a000081eb00e2af9f000a00370011
:1015d000880078003100fb0001047800ffb097001c
:1015e000ac030700e10f4000030032002fb2970068
:1015f0000402e800a4b79f000900e9008004780015
:10160000e10f4000f2ff3a000006eb000d00e000a1
:101610000a003a00c6013700ffb097000002200020
:101620009c030700e10f400003003200afb29700b7
:101630008502e800a5b79f000c06e8006fa8970098
:10164000800f5600f4ff3a00b90137008fb89700b9
:101650004100780081bf9f00cf80de00010178004b
:10166000820178000205be000004be000203be0035
:101670000002be004822de00482edd000402760093
:10168000e4d79f000d48a3000a0032000404e000e4
:1016900008003200e14f42000600320071fd2f00c9
:1016a0000180470004487800184098002900200075
:1016b00002003700f0d79f001900200072fd2f00b4
:1016c00002844700a1ff370064fd2f000484470017
:1016d000190020009dff37000d0cb3000d007800ad
:1016e000000cb20028003a000d00e00005003d00ab
:1016f0008fba97004505be004504be0085bf9f0018
:10170000140037000d48a3000b0032000fbe9700f5
:101710004c00be008cbf9f004f89de00cf91de00e1
:101720000002be0002037800820378000605be00b6
:101730000404be00070037008fb89700410078000e
:1017400081bf9f0000047800cfc4de000905780047
:101750008a057800e00f5400e08f5c00e00f5d0028
:10176000e08f5d001f003d003d00b3006000b80049
:101770006011b80008045000898458000a05590017
:101780008b855900170037000d00e00005003d0073
:101790000fb997004205be004204be0082bf9f0001
:1017a000100037000d48a300070032000fba970061
:1017b0004400be0084bf9f006011b8000205be0057
:1017c0000004be00070037008fba9700450078007c
:1017d00085bf9f0000047800090020000a00200057
:1017e0000b0020003fb697000c00e00007003a0015
:1017f000e00f5400e08f5c00e00f5d00e08f5d00c3
:1018000002003a0010002000b0b79f008d00780061
:10181000010cb200e1b79f0000042000808f50004f
:101820003000320003003c000100e00008003200fc
:1018300040003700000820006fb19700800f510072
:1018400014003200000c2000800f510039003a00d3
:1018500014c0b30005f421000b0037000400fb00a6
:101860004300dd00050040005001be004000be0006
:101870000040e10001c8e10002d0e10003d8e1002e
:101880002b0039000442e800f44f5200f3ff3a0005
:101890002700370000012000010020006011b8007f
:1018a00014c0b3000040e10001c8e10002d0e10033
:1018b00003d8e1001e003900450020000000d000e0
:1018c0008180d2000281d2008381d2008502e900aa
:1018d000faff3a000442e800f04f5200f1ff3a00ec
:1018e0001300370080002000010020006011b800c4
:1018f00014c0b3000040e10001c8e10002d0e100e3
:1019000003d8e1000a0039003c0020000000d000ac
:101910008180d2000281d2008381d2000c06e900ce
:10192000faff3a000442e800f54f5200f1ff3a0096
:10193000e4d79f00efd097000100fb003fb1970074
:10194000820f500002003d00e2d79f0004003700e4
:101950003fb29700800f520001003d00b0b79f00da
:10196000cfb297000500e0000400320063806600fb
:10197000020032008502e900c5b79f000de8a30010
:101980000b0032004fb697003fb09700800f560013
:1019900003003c008000eb00c1b79f00040037004b
:1019a0004fb197003fb2970004015100c2b79f00aa
:1019b000efd297000500fb000006eb00dcaf9f00b4
:1019c000cfb09700808f500002003400008050009c
:1019d000d0af9f000d28a30037003200e1806600e1
:1019e0000d18a3000c003200d00220000100e0001e
:1019f00001003a000080e900ffb09700a50207004f
:101a0000e10f40000e0032002fb197000201e80004
:101a1000a2b79f000a0037000100e0000800320072
:101a2000ffb09700000220009a020700e10f40007b
:101a3000030032002fb297000402e800a4b79f0011
:101a4000dfaa97000500e0000f0032000006eb005f
:101a5000ffb09700000320008e020700e10f400056
:101a6000030032002fb097000000e800a0b79f00ed
:101a70000c06e800dfa89700810f5600f4ff3a003b
:101a80000001eb00d2af9f003fb29700c320dd0002
:101a900080f321008080400091b79f004220dd004c
:101aa0006400500080b79f006320b900f0af9f0032
:101ab0006306500084003700dfaa97000500e000ad
:101ac00011003200688066000f003a0000067800be
:101ad000ffb09700000220006e020700e10f4000f7
:101ae000030032002fb097000000e800a0b79f006d
:101af0000c06e800dfa89700810f5600f4ff3a00bb
:101b00000001eb00d2af9f00e18066000d18a3003a
:101b10000c003200d00220000100e00001003a0079
:101b20000080e900ffb097005a020700e10f400073
:101b3000d5ff32002fb297000402e800a4b79f003f
:101b4000d1ff37000100e000cfff3200ffb0970067
:101b5000000220004f020700e10f4000caff3200e0
:101b6000afb297008502e800a5b79f00c6ff370017
:101b700000042000efb09700808f50003100320049
:101b800003003c000100e000080032003e00370086
:101b9000000820006fb19700800f51001100320043
:101ba000000c2000800f510037003a001fb0970052
:101bb0003002be002003be000800be000a01be00c5
:101bc00079040700a4002000050020006033b8005d
:101bd0007c04070004c3b30004424000e4d79f0024
:101be0002900370075fe2100d5b79f000d58a300ce
:101bf00002003a0080ff2100d0b79f0014002000af
:101c0000050020006033b8008fb097008100e90024
:101c1000050033000402d0008582d2000683d20082
:101c20008783d200f9ff37000800be000a01be001a
:101c30005d0407006f0060005fb1970062407800ac
:101c40001000370014002000050020006033b800a9
:101c50000c0078000000e900050033000402d00009
:101c60008582d2000683d2008783d200f9ff370035
:101c70000800be000a01be004b0407006740600078
:101c80000043b000e0d79f00efd097000100fb00b9
:101c9000ffb09700ff010700e10f40000300320092
:101ca0002fb197000201e800a2b79f001fb2970072
:101cb0006802520094b79f008fb29700e4825200ee
:101cc00085b79f0063065600d0ff2f003fb19700f5
:101cd0000090b9007faa9700000042006300500006
:101ce000800f5600a2ff3a000d38a300100032000a
:101cf000dfaa97000500e0000d0034000006eb00ad
:101d0000ffb0970000022000e2010700e10f400051
:101d1000030032002fb097000000e800a0b79f003a
:101d20000c06e800dfa89700810f5600f4ff3a0088
:101d3000be407800e1d79f000104e0005dfd3a005d
:101d40002fb097004f0778004f06be004f05be002a
:101d50004f04be00ef01b100000006000000fa00d1
:101d60004fb99700e8815700020007000080fa0091
:101d7000000006000c00fa00881f780000027800be
:101d800082027800030178008001eb00e18f5000af
:101d90000e0036000100e900e0bf9f000004eb00e8
:101da000a8bf9f0094bf9f00b4bf9f00200c2000dd
:101db000c0bf9f00850078006e80570032fd07008d
:101dc000800178001fb89700084878000300780069
:101dd0004f0478000080fa00000006000c00fa00b2
:101de000a0bf9f00c0bf9f00f9fc0700b0bf9f00cd
:101df000f0bf9f00100c2000d0bf9f0074815700df
:101e0000efb097006c8057002e0007000080fa00aa
:101e100000000600889fbe0000047800814478001e
:101e200000fd2f0000004400e90f500002003e00ba
:101e3000000178000d003700080078005401070009
:101e40000000e0000300320008007800560107009f
:101e500000047800080078003b0107000000e00063
:101e60000700320090fa2f00000144000980fb00b7
:101e7000800f510002003d000280fb00010037008e
:101e8000f00f20004f04be0000000600881f7800fd
:101e9000b00181004b010700000478003401070005
:101ea0000000e000faff3a00e10f440003003200b6
:101eb000b101810008007800c00107004f047800dc
:101ec00000000600ec874700889fbe008a9fbe0086
:101ed0008c9fbe008e1f780081bf9f000207780094
:101ee000b00189008046eb00040137008884fb00c4
:101ef000090078001e010700800078000000e00063
:101f000002003200e1ff0700fc00370050c2b300be
:101f1000804f5400f0003a000fbd970020c0b3007e
:101f2000c0ef9f00d1ef9f0081ef9f0003003700bb
:101f300040c0b300c0ef9f000fbd97000fb99700de
:101f4000b240780082bf9f008184fb0090c6b3003e
:101f500080cf50003500320017003e006640500030
:101f600080cf5000620032000c003e0077405000ed
:101f700080cf50002800320006003e000104e0003f
:101f80009b003200a0c2b30080cf50006e003a0028
:101f90001d00370080c5b3001600370040c6b300ef
:101fa00080cf5000210032006440400080cf5000bc
:101fb00065003a001200370030c7b30080cf5000f0
:101fc0001e00320007003e006740500080cf5000e6
:101fd000110032006340400080cf50005a003a00a8
:101fe0001400370050c7b30080cf50000f003200fc
:101ff0006340400080cf500053003a006500370036
:1020000020c0b300cbff3700dfe897008140e80035
:10201000d1ef9f00c8ff37004fe9970080c0b300a1
:10202000e24f5100c3ff3a00c1ff3700acc0b3001c
:10203000590037008cc0b3005700370093ff0700ea
:10204000dfe897000104e00002003a004e0178004a
:10205000d2b79f00b0018100da00070000047800c9
:10206000e10f4000a20032008fec97001200370011
:102070000a85e8008abf9f00160037008fb89700d6
:102080001100fb00800f5400f9ff32005fe9970058
:102090000204e00003003a005fb09700085878009f
:1020a000d0b79f008944e9000a003200b0018100e6
:1020b000c4000700000478000800e800e10f5000a9
:1020c0000400360008007800a90007000000e000c6
:1020d000eaff3200dfe897000104e00087003a00e1
:1020e0008d46e8005fb19700014978008300370012
:1020f0005fe897000004e00003003a008d46e80026
:10210000ce007800d1b79f00b0018100ad0007007c
:10211000e10f4000760032005fe997000204e00022
:1021200003003a00dfb0970080587800d1b79f00d5
:102130000fe997000241e90082ef9f004240a900a9
:102140006e003400f0ff37000180fb0008fd2f0017
:1021500008004000e90f50005f003e000a007800d0
:10216000f7fb070080ef9f0088007800030037002e
:102170000fb897000000e80080bf9f000fb99700dc
:102180001200fb0001004000e90f5000f8ff36008c
:1021900069ff37000cc1b3003cff0700b0018100ac
:1021a00088000700000578000040eb00e0ef9f008a
:1021b000d0022000800f550005003a00b0018100d8
:1021c000800007000005780011c0b300e1ef9f0018
:1021d0008c4078000a0078000eff0700e14f4000b5
:1021e0000a003a00b10181000a007800f3000700fc
:1021f0000d04e0004b003a00b00181003000900077
:102200000048a30043003200480037008fed9700dc
:102210006044b8000c81fb00030020000800be00f1
:10222000340207000004be008c4078000a007800e9
:10223000f8fe07000080fb000100200008044000b9
:10224000898448008b45e90007003200b001810015
:102250005c000700000578008c407800edfe070068
:10226000e14f4000ebff3a008c4078000a00780014
:10227000e8fe0700e14f400003003a00b101810091
:102280000a007800cd0007006fe997000204e00023
:102290000200320060041400e0841c005fe8970034
:1022a0000004e00015003a008d46e800cfe89700f2
:1022b000e4cf500003003a004e0078000888be00ca
:1022c0000e0037000e81e900020778001200780046
:1022d0000808780009003700b001810039000700c4
:1022e000808f540005003200e10f40000b003a00df
:1022f0000d04e0000d0032000a0037008fb897008f
:102300003144780081bf9f000804e000f7fe3a00e6
:10231000040037000000eb0005003700b101810028
:10232000a60007000d80fb00010037000080eb00d5
:102330004f0778004f06be004f05be004f04be0099
:10234000cf00b100000006001004b1000700350006
:102350009001b100040034007000b10003003500aa
:102360009001b10001003c001000050000000500d4
:102370006900e100040035006d00e1000300340055
:102380000002b1000100320000000500100005004d
:102390001004b100030035009001b10001003c00c1
:1023a0001000050000000500800078001104b10055
:1023b000030035009101b10001003c000050a00075
:1023c00000000600881f780000047800b00090002c
:1023d0000148a30007003a000108a30005003200ed
:1023e0000198a30008003200100090000000e000f7
:1023f00005003200380090000040a0003004980032
:102400008080eb00200037000190a100310498008b
:10241000180090000000e000060034000000e90011
:102420001004980018007800b080fb00000c7800c1
:1024300006003700380090000068a300edff3a0066
:10244000080078007e0007008000780038009000c7
:102450000078a3000c003a00fa8f500008003a0000
:10246000280090000000e000e2ff32001800900019
:102470000000e80010049800180ce900ddff3700a8
:10248000ed8f5000e2ff3200010078004f04780029
:1024900000000600889fbe0000017800010478005b
:1024a000b10090000118a300400032000198a30081
:1024b00003003a00180090000000e0003b003a00e2
:1024c0000190a0003104980082047800f90fb20056
:1024d000180090000000e00002003a002800900080
:1024e000000c7800ea8f540006003a003800900093
:1024f0000078a30003003a0088007800d000200094
:10250000e4ff0700180290006121b9005800900014
:10251000e8009000800f5100818f59000b003200bd
:102520000400e800100498001800780009587800aa
:10253000000c780011c0b30040032200014878006d
:10254000ea8f540006003200190037008800780036
:1025500009407800880007008004780014003700e4
:10256000380090000088a30011003200180190008c
:10257000a8009000480090002501070098009000f6
:10258000810f500004003200380090000003b300b7
:10259000300498008084eb000000eb0010049800e9
:1025a00028009000000c7800010037008084eb00c8
:1025b000090078004f04be00000006000003780008
:1025c00001027800e10f40001a0032003100900053
:1025d0000008a300170032000098a30015003a007d
:1025e000a10390000700e000120032009102900069
:1025f0006129b90051009000e1009000800f510066
:10260000818f59000b00320014007800870f5000b2
:1026100002003a00000ae800020037000500e80066
:10262000100298001400e900000a780006487800bb
:10263000010037000083eb00060078000000060070
:102640000200fa00889fbe008a1f7800000478000c
:102650000000eb0010049800380090008080eb0030
:102660000008a3003f003200400322001004e000f5
:1026700010003200c90022002a0122001a0078004e
:102680006c0545002010b20021102000810f500081
:1026900002003a00090078007a000700ec84440048
:1026a00000032200808f5400f4ff3a004003220010
:1026b0000048eb0048009000580190000200e00044
:1026c0000d003a001204980012002000e880570024
:1026d00096000700e10f500003003a000ff8970042
:1026e0008080fb001f003700380090000040a000f1
:1026f0003004980012003700a80090008b000700fb
:10270000100498000000e00003003200e10f4000d8
:102710000d003a0003003700380090000040a00090
:1027200002003700380090000003b3003004980026
:10273000a8009000010c78000000eb001004980045
:102740008080eb0007003700a8009000010c7800a3
:102750000000e9001004980001007800b080fb0040
:10276000000c7800010078004f0578004f04be008f
:102770000080fa00000006000200fa00889fbe00f8
:10278000a0ff9f0001047800b10090008104780050
:102790000904b200020032000000fb0036003700de
:1027a0000118a30005003a000103b30031049800aa
:1027b000190498000080eb002f00370058009000ab
:1027c0000000e00006003a004800900012002000df
:1027d000e68057008e000700190498002400370097
:1027e000280090000000e00008003a0000032200ea
:1027f00020049800000c780020002000500498006d
:10280000100498000130a0003104980018019000d5
:10281000a8009000480090007d000700280090006c
:10282000000c78000080eb0010049800180078007d
:10283000aff8970001587800000c78002ff8970047
:10284000ea4f50000a003a00380090000088a300c8
:102850000700320018019000a80090004800900086
:102860006b00070019049800a8009000010c780084
:10287000aff897000100fb004f04be000080fa0093
:1028800000000600881f78000004780030009000e7
:102890000008a30007003200800078000120b20089
:1028a00004003a0011049800a8009000010c780080
:1028b000170037000018a300190032000098a30089
:1028c00017003200a80090000100e0001400320060
:1028d000180190000200e000110032004800900052
:1028e0004b00070098009000810f50000300320059
:1028f000380090000003b300300498000000eb00a3
:102900001004980028009000000c78003800900017
:102910000058a300020032000080eb0001003700e5
:102920000000eb004f047800000006000a00fa00e7
:10293000881f7800800178000000e00029003a003c
:10294000c0018100e10f5000080032008023200008
:102950000000e000050032000423200025232000b1
:102960006723200080017800040037000422200043
:10297000252220006722200083222000144090009e
:102980000004e000040035008009eb0014409000d2
:102990000074a000104298000002eb000c00370009
:1029a000130a2000154478006140640002003a00d8
:1029b0008301e900fbff3a000402e800954178003a
:1029c00061c061000500320017007800805878006f
:1029d00004035100820f5200f1ff3a00060051003b
:1029e0000800370020002000a0bf9f00b3bf9f0059
:1029f000c1bf9f00d2bf9f006c80570000c0da00ab
:102a00005fb897004f0478000080fa0000000600cd
:102a10000a00fa0080017800e20f500028003e0012
:102a2000c0018100e10f5000080032008023200027
:102a30000000e000050032000423200025232000d0
:102a40004623200080017800040037000422200083
:102a500025222000462220008322200014409000de
:102a60000004e000040035008009eb0014409000f1
:102a70000074a00010429800154090000028a300a8
:102a800003003a00154090000024a00090429800f6
:102a90008001eb0007003700154090000008a300fc
:102aa000fdff320063c078000000fb00000b7800df
:102ab0008301e800828f5100f7ff3a0008003700d9
:102ac00030002000b0bf9f00c3bf9f00d1bf9f0058
:102ad000e2bf9f006a80570000c0da006fb997001c
:102ae000020078000080fa000000060014002000b8
:102af00084f83700020ab900001bb9000200b800d0
:102b0000810042008100430000000600881f780019
:102b1000000478005001be004000be0004004000e8
:102b2000858048000601490087814900009cbe005d
:102b30000294be000400e1000588e1000690e10077
:102b40000798e10002003100680044001008e80026
:102b50004f04780000000600f4874700889fbe00fd
:102b60008a9fbe008c9fbe008e1f78000205be00ab
:102b70000004be00d4b79f00e5b79f00f6b79f00e2
:102b800087bf9f000000eb00c0b79f00b0b79f0059
:102b9000a0b79f0090b79f0080b79f000d04200052
:102ba000bfb097004fb09700000140000000e00068
:102bb0000f003d004f08de0000007100c0b79f000d
:102bc0004d00070001003d001200200050000700ea
:102bd00001003d00120020005500070061000700c1
:102be000660007000f004000c8ff07002200370002
:102bf0004f08de0000067100ccb79f003e000700c2
:102c000001003d00120020004100070001003d00ce
:102c10001200200046000700520007000fb2970084
:102c20009fb297002fb39700bfb3970059000700da
:102c30000000520081805a0002015b0083815b002a
:102c400080b79f0091b79f00a2b79f00b3b79f00c6
:102c50000007eb004f0007000020e10001a8e100a1
:102c600002b0e10003b8e100010031001e002000c5
:102c70000e005600c0b79f004fb297000400e0005e
:102c80000700350010002000010020006011b8008e
:102c900008047000898470000a0571008b8571003a
:102ca0008d06e900beff3a000400e00003003d008d
:102cb000320007000f00400094ff07004fa8970064
:102cc0000000e00004003a000fb497009fb49700a2
:102cd0002fb59700bfb597000800be000a01be00df
:102ce0004f0778004f06be004f05be004f04be00e0
:102cf0004f01b100000006000180400090b79f0026
:102d00000001eb008fb097000100e000000006001a
:102d10000200700090b79f000180400080b79f00c4
:102d20000001eb00ffa897000100e0000000060092
:102d30000200700080b79f00018040006faa9700da
:102d4000cf20de0001007000f0af9f0004024200bf
:102d50000800be000a01be004f18de00000272002b
:102d600000000600e4af9f000804440089844c0082
:102d70000a054d008b854d00000006003fb297000c
:102d8000cfb297005fb39700efb3970000fe2f001c
:102d9000000006003fb09700cfb097005fb19700ea
:102da000efb1970000000600881f7800180020008f
:102db000881f780068ff07008f87e9004f047800bc
:102dc00000000600801feb0063ff07008f87e9000b
:102dd00000000600889fbe008a9fbe008c1f7800fe
:102de0000205be000004be00e00f5000e08f580056
:102df000e00f5900e08f59000c003d006000b80062
:102e00006011b80008045000898458000a05590070
:102e10008b8559001c0020001f00070008003d00a2
:102e2000180007000006eb00050037000006eb0065
:102e30001900070002003d000f0007001c002000e1
:102e40000800be000a01be00d7ff07000203be0053
:102e50000002be000c00e000010032000600070086
:102e60000400be000601be004f0678004f05be00fc
:102e70004f04be00000006006000b8006011b800fa
:102e800000003700040250008582580006035900f4
:102e90008783590000000600e00f5200e08f5a00bf
:102ea000e00f5b00e08f5b0000000600889fbe0023
:102eb0008a9fbe008c1f78000205be000004be0081
:102ec000e00f5000e08f5800e00f5900e08f5900ec
:102ed0000a003d006000b8006011b800080450000e
:102ee000898458000a0559008b8559001c00200070
:102ef0001800070007003d00050037000006eb0042
:102f00001400070003003d006000b8006011b80025
:102f1000150007000800be000a01be00a9ff070057
:102f20000203be000002be000c00e00003003200fd
:102f30006000b8006011b8000b0007000400be007c
:102f40000601be004f0678004f05be004f04be00cc
:102f500000000600e00f5200e08f5a00e00f5b0017
:102f6000e08f5b00000006000402500085825800dc
:0c2f70000603590087835900000006008a
:020000040000fa
:0200000401f009
:04000c00f8ff0000f9
:020000040000fa
:0200000401f009
:040010007bff000072
:020000040000fa
:0200000401f009
:040014007fff00006a
:020000040000fa
:0200000401f009
:04001c00dfff000002
:020000040000fa
:1000080090020000900200009002000090020000a0
:100018009002000090020000900200009002000090
:10002800900200009002000090020000941b000063
:10003800900200009002000090020000f01b0000f7
:100048009002000090020000900200003a34000084
:100058008e34000090020000900200009002000020
:100068009002000090020000900200009002000040
:100078009002000090020000900200009002000030
:100088009002000090020000900200009002000020
:100098009002000090020000900200009002000010
:1000a8009002000090020000900200009002000000
:1000b80090020000900200009002000090020000f0
:1000c80090020000900200009002000090020000e0
:1000d80090020000900200009002000090020000d0
:1000e80090020000900200009002000090020000c0
:1000f80090020000900200009002000090020000b0
:10010800900200009002000090020000900200009f
:10011800900200009002000090020000900200008f
:10012800900200009002000090020000900200007f
:10013800900200009002000090020000900200006f
:10014800900200009002000090020000900200005f
:10015800900200009002000090020000900200004f
:10016800900200009002000090020000900200003f
:10017800900200009002000090020000900200002f
:10018800900200009002000090020000900200001f
:10019800900200009002000090020000900200000f
:1001a80090020000900200009002000090020000ff
:1001b80090020000900200009002000090020000ef
:1001c80090020000900200009002000090020000df
:1001d80090020000900200009002000090020000cf
:1001e80090020000900200009002000090020000bf
:0801f8009002000090020000db
:020000040000fa
:10020800900200009002000090020000900200009e
:10021800900200009002000090020000900200008e
:10022800900200009002000090020000941b000061
:10023800900200009002000090020000f01b0000f5
:100248009002000090020000900200003a34000082
:100258008e3400009002000090020000900200001e
:10026800900200009002000090020000900200003e
:10027800900200009002000090020000900200002e
:10028800900200009002000090020000900200001e
:10029800900200009002000090020000900200000e
:1002a80090020000900200009002000090020000fe
:1002b80090020000900200009002000090020000ee
:1002c80090020000900200009002000090020000de
:1002d80090020000900200009002000090020000ce
:1002e80090020000900200009002000090020000be
:1002f80090020000900200009002000090020000ae
:10030800900200009002000090020000900200009d
:10031800900200009002000090020000900200008d
:10032800900200009002000090020000900200007d
:10033800900200009002000090020000900200006d
:10034800900200009002000090020000900200005d
:10035800900200009002000090020000900200004d
:10036800900200009002000090020000900200003d
:10037800900200009002000090020000900200002d
:10038800900200009002000090020000900200001d
:10039800900200009002000090020000900200000d
:1003a80090020000900200009002000090020000fd
:1003b80090020000900200009002000090020000ed
:1003c80090020000900200009002000090020000dd
:1003d80090020000900200009002000090020000cd
:1003e80090020000900200009002000090020000bd
:0803f8009002000090020000d9
:020000040000fa
:102f7c003c6d00003e630000616c00006962000063
:102f8c0072610000746900006e6700002e2e000054
:102f9c002e0a000061760000657200006167000077
:102fac00652f000073630000616c0000696e000007
:102fbc00673a00000a6100003a200000256c00000e
:102fcc00642f0000256c0000640a0000623a0000c7
:102fdc00202500006c6400002f2500006c640000ac
:102fec000a6300003a200000256c0000642f0000ea
:102ffc00256c0000640a0000643a000020250000e3
:10300c006c6400002f2500006c6400003c2f000055
:10301c006d3e00000a0000003c6d00003e530000b5
:10302c0079730000746500006d2000007061000071
:10303c0075730000696e0000673c00002f6d000086
:10304c003e0a0000003c00006d3e00005379000079
:10305c0073740000656d0000207200006573000041
:10306c00756d0000696e0000673c00002f6d00005c
:10307c003e0a0000002500007320000025730000ac
:10308c0020250000730000003c6800003e0000009a
:10309c00090000003c2f0000683e00000a00000000
:1030ac003c7500003e0000003c2f0000753e000007
:1030bc000a0000003c7200003e0000003c2f0000a3
:1030cc00723e00000a000000706100007573000081
:1030dc0065000000676f0000003c00006d3e0000c2
:1030ec005379000073740000656d000020670000c8
:1030fc006f2100003c2f00006d3e00000a00000014
:10310c007265000073650000740000003c6d0000e7
:10311c003e4500006e74000065720000696e000090
:10312c0067200000726500007365000074200000c9
:10313c006d6f0000646500002e3c00002f6d0000d8
:10314c003e0a000000630000616c00006962000030
:10315c00007300006574000000730000616d0000d6
:10316c00706c000065740000696d00006500000063
:10317c00706f0000737400007261000074650000d1
:10318c00003c00006d3e0000506f000073740000a6
:10319c00696e000067200000706500007269000015
:1031ac006f64000020730000657400002074000040
:1031bc006f200000003c00002f6d00003e0a000054
:1031cc00006200006c6900006e6b00007261000010
:1031dc0074650000003c00006d3e0000426c000075
:1031ec00696e00006b2000007065000072690000c1
:1031fc006f640000207300006574000020740000f0
:10320c006f200000007300007465000070720000f5
:10321c0061740000650000003c6d00003e5300002e
:10322c007465000070200000706500007269000079
:10323c006f640000207300006574000020740000af
:10324c006f20000000780000003c00006d3e000084
:10325c00737400006570000020620000696e00004d
:10326c003a200000256400003c2f00006d3e000059
:10327c000a00000079000000746500006d70000009
:10328c00003c00006d3e0000746500006d70000095
:10329c0020630000686100006e6e0000656c000029
:1032ac00206f00006666000073650000743a000031
:1032bc00202500006c6400003c2f00006d3e0000d7
:1032cc000a000000616c00007068000061000000e2
:1032dc00737400006f700000007000006f730000ca
:1032ec00746900006e670000003c00006d3e000039
:1032fc00506f000073740000696e000067200000be
:10330c00737400006f70000070650000642e000084
:10331c002054000079700000652000002773000025
:10332c007461000072740000207000006f73000064
:10333c00746900006e67000027200000746f0000a5
:10334c002072000065730000756d0000652e000092
:10335c003c2f00006d3e00000a0000006d6f000065
:10336c00746f000072730000007300007461000041
:10337c00727400000078000070000000786d00008e
:10338c000079000070000000796d000000640000fe
:10339c006572000069760000003c00006d3e000084
:1033ac0064650000726900007661000074690000b9
:1033bc0076650000733a000020740000696d00000f
:1033cc00652000003d200000256c0000640a000010
:1033dc00613a0000202500006c6400000a620000c5
:1033ec003a200000256c0000640a0000633a0000db
:1033fc00202500006c6400000a6400003a200000e4
:10340c00256c0000643c00002f6d00003e0a00009b
:10341c00007a0000657200006f000000706f000001
:10342c00730000003c6d00003e5a00006572000005
:10343c006f6900006e67000020630000617200007d
:10344c00726900006167000065200000706f000069
:10345c0073690000746900006f6e00002066000044
:10346c00726f00006d200000287800002c7900009d
:10347c00292000003d200000282500006c6400007d
:10348c002e25000030340000642c000020250000a4
:10349c006c6400002e25000030340000642900000c
:1034ac003c2f00006d3e00000a0000003c6d000047
:1034bc003e4300006f6d00006d6100006e64000003
:1034cc00207500006e6b00006e6f0000776e0000c0
:1034dc003a2000000020000000000000736500008e
:1034ec00636f00006e64000073000000696e0000e2
:1034fc00006300007473000000570000617400004a
:10350c007473000000440000656700002043000055
:10351c0000000000749a00007c9a00007c9a000065
:10352c007f9a00007f9a00007f9a00007f9a00002b
:10353c00839a0000899a00007f9a00007f9a00000d
:10354c007f9a00007f9a00007f9a00005469000067
:10355c006d650000005800002d53000074650000dc
:10356c0070000000592d00005374000065700000bd
:10357c000045000061730000745f00006669000084
:10358c006c740000004e00006f7200007468000044
:10359c005f660000696c0000740000005765000055
:1035ac00737400005f660000696c0000740000001a
:1035bc00536f000075740000685f000066690000be
:1035cc006c740000005400006f740000616c00000b
:1035dc00205000006f77000065720000005400005e
:1035ec00656d000070000000456100007374000000
:1035fc00004e00006f72000074680000005700005d
:10360c006573000074000000536f000075740000b7
:10361c0068000000ac9a0000b19a0000b89a000053
:10362c00bf9a0000c99a0000d49a0000de9a0000ec
:10363c00e99a0000f59a0000fa9a0000ff9a00003f
:10364c00059b00000a9b0000f59a00006d6d0000c0
:10365c00002500006c7500002e25000030330000a2
:10366c006c7500000025000063250000642e00002e
:10367c002530000032640000002500006c6400005e
:10368c00002500006c6400002e2500006400000082
:020000040000fa
:10369c000000fa0090022000303a880044c7bf00b6
:1036ac00f043b20044e7b700417420009140780029
:1036bc0000ceb30000c0600044e7b7001200200049
:1036cc0081072000a0092000337420008149780074
:1036dc0080497800824978001200200061042000a3
:1036ec0070052000237420008149780080497800ff
:1036fc008249780043c7bf000047b200f04f50002a
:10370c00fcff3a0042c7bf000042b2000004e000d8
:10371c00fcff32000080fa00000006003600f800c2
:10372c00809fbe00829fbe00849fbe00869fbe000d
:10373c000000fa00d0f180000000e800d0f1880011
:10374c00d0f18000630060000000e00008003a0047
:10375c0060ee800071ee800061004000e080480067
:10376c0060ee880071ee88000000eb00d0f188005c
:10377c00d0f1800022002000110009000200d800c6
:10378c008000fd002705070064ee800075ee8000c8
:10379c0080ee80006101b9000400be0053f5070003
:1037ac00e00f5000e08f580002003a00100020009b
:1037bc0090ee88008460a9000080fa004f03be00e0
:1037cc004f02be004f01be004f00be003600f90094
:1037dc00004006000000fa0084e0a9000080fa0016
:1037ec00004006000000fa000000eb000008880012
:1037fc00504d200010088800000128002008880087
:10380c008460a9009460a8000080fa000000060003
:10381c000000fa0000fc2f00601988003001200025
:10382c00001688000000eb00301688000000eb004a
:10383c0020168800f03e2000401688000000eb00a7
:10384c00701688000000eb0060168800c16920002b
:10385c009140780000ceb30000c060006040b3001f
:10386c009ce6b700d16920009140780000ceb300ef
:10387c0000c060007040b3009de6b700016a2000f4
:10388c009140780000ceb30000c060009040b300bf
:10389c00a0e6b700116a20009140780000ceb3007a
:1038ac0000c060000034a000a1e6b7000000eb00ef
:1038bc00800c8800416a20009140780000ceb30053
:1038cc0000c060005040b300a4e6b700416c20007b
:1038dc009140780000ceb30000c060003040b300cf
:1038ec00c4e6b7000080fa00000006000400fa00ed
:1038fc00101680004400de00610060000004e0004f
:10390c000400320020ce80000000e80020ce8800a9
:10391c000600370020ce80000000e00003003400d9
:10392c0020ce80000000e90020ce880020ce800050
:10393c000000e00016003a0030ce8000100798001e
:10394c001e009000e10f5000090032001e00900094
:10395c00e20f5000010032000a0037000000eb00bb
:10396c0030ce88000000eb00000f78001f003700fd
:10397c000000eb0030ce880010002000000f780013
:10398c001a0037000000eb00000f7800170037001a
:10399c0020ce8000e50f500006003a0030ce8000ab
:1039ac000000e00003003a001000200030ce880038
:1039bc000c00370021ce8000401f2000808f50006b
:1039cc0008003a0030ce8000e10f500005003a00ac
:1039dc000000eb0030ce880020002000000f7800a3
:1039ec00020037000000eb00000f78001e0078008a
:1039fc000080fa00000006000000fa00004e2000d3
:103a0c00001988000000eb00801988000000eb0012
:103a1c001019880020f02100201988002063a900cb
:103a2c0021e3a8000080fa00000006000400fa0060
:103a3c00000f78001107980000702000000f88001c
:103a4c0000192000300f88000000eb00200f8800c8
:103a5c0000702000800f880000192000b00f880033
:103a6c000000eb00a00f88009e007800401e200094
:103a7c00800878001e0178006000b80010019800e2
:103a8c00210198001e0178006000b80030019800f8
:103a9c00410198001e0178006000b80050019800a8
:103aac00610198001e0178006000b8007001980058
:103abc00010998001e0178006000b80010099800f8
:103acc00210998001e0178006000b80030099800a8
:103adc00410998009e009000401f2000800878004b
:103aec001e0190006000b8001001980021019800a0
:103afc001e0190006000b800300198004101980050
:103b0c001e0190006000b8005001980061019800ff
:103b1c001e0190006000b800700198000109980027
:103b2c001e0190006000b80010099800210998004f
:103b3c001e0190006000b8003009980041099800ff
:103b4c000080fa00000006000400fa00100798003c
:103b5c000000eb00000f78001e0090004019880058
:103b6c00010037001e0fe800800120009e0f10009e
:103b7c00fcff34002023a800010037001e0fe900d1
:103b8c001e00e000fdff3c0020c3bf006140600050
:103b9c000004e000fcff320000188000010020004f
:103bac000080fa00000006000200fa00000f780006
:103bbc001e00780010007800100078000000d10082
:103bcc00010020001e01780030019800410198008e
:103bdc001e00780030019000c00190001e0078009b
:103bec00a00890001008900000005100818059003e
:103bfc001e01780050019800610198001e007800a9
:103c0c0050019000e0019000e0fc2f00f1ff2f002c
:103c1c00800f5100818f59000e003d001e0078006e
:103c2c0070019000800990001e007800e000900068
:103c3c005000900002004000838048000019b00042
:103c4c000180b0001e0178003009980041099800ed
:103c5c00230037001e00780050019000e001900016
:103c6c002003200001002000800f5100818f59009b
:103c7c00100034001e007800700190008009900044
:103c8c001e007800e00090005000900002014000ff
:103c9c008381480000e72f00f1ff2f000200400055
:103cac00838048001e017800300998004109980073
:103cbc000b0037001e007800700190008009900006
:103ccc001e007800e00090005000900002004000c0
:103cdc00838048001e017800300998004109980043
:103cec001e007800c0009000300090001e0178008b
:103cfc0010099800210998001e007800c008900057
:103d0c00300890001e01780070019800010998009d
:103d1c000080fa00000006000400fa00100798006a
:103d2c001e009000100078009000780030ff2f00eb
:103d3c00008f60001e009000100178001e009000a3
:103d4c0010009000100078004200dd009e00700012
:103d5c001e00900020009000100078004300dd0051
:103d6c0000807000000978000080fa000000060056
:103d7c000600fa0010079800210798001e0090001a
:103d8c0070089000100178001e00900080109000c8
:103d9c001e00900010109000008070000080ea005f
:103dac00000f61001e009000700990001e00900032
:103dbc00801090002e0090000088b9009e007000ca
:103dcc001e00900010109000008070000009780018
:103ddc000080fa00000006000200fa00000f7800d4
:103dec001e007800700990001e007800700890008a
:103dfc00900078001e007800101090000080ea00ff
:103e0c0000806000000978000080fa0000000600c5
:103e1c000c00fa0010079800210798001e00900073
:103e2c0070089000900078001e0090002010900008
:103e3c000080ea00008f60001e0090007008900067
:103e4c00500798001e00900020109000400798002a
:103e5c000000eb00300798002e0090000000e000fe
:103e6c0002003a0011002000310798004e0190002a
:103e7c00be0190000390b9001e007000de0090009f
:103e8c00800878001e0090002e01900032109800df
:103e9c000080fa00000006000c00fa00889fbe00ab
:103eac008a9fbe008c1f780020079800320798006c
:103ebc0043079800510798002e0090003e01900097
:103ecc00ce0190000288be002e00900010b8910028
:103edc00b00090002e00900011b899002e009000b8
:103eec0010b891003e019000ce0190000288be00f7
:103efc005e0090000000e000190032002e009000df
:103f0c0050b99100e0b991003e009000ce009000b5
:103f1c0002045000838458002e00900030bb9100a6
:103f2c00c0bb91008800780006007800000ab80039
:103f3c0007c0b900050178000001410009b0b900c3
:103f4c000001410082027800c129dd004f20de0013
:103f5c0000807100cfa8de00300798004107980060
:103f6c002e00900000b89100b00090002e00900040
:103f7c0001b8990030f080000000e000270032000a
:103f8c002e00900000be91002e0090004002900088
:103f9c00d0029000840078003e009000000db80024
:103fac004e00900000a0b9000b0178000001410008
:103fbc003e0090000580b9000001410082057800a8
:103fcc002e00900000b89100200090001004be005c
:103fdc002e00900060039000f003900088007800a1
:103fec0006007800000ab80007c0b9000501780087
:103ffc000001410009b0b9000001410082027800c3
:10400c000a0042008b804a00823e20000300200000
:10401c00e2f10700008ebe006c0037002e0190000c
:10402c006000b80020019800310198002e0090002b
:10403c0010b89100b00090002e00900011b89900bb
:10404c002e00900010b891003e019000ce0190001f
:10405c000288be002e00900090b99100030f7800ea
:10406c000000eb0010079800220037002e00900093
:10407c0080b991002e00900000b891001005be0090
:10408c001e0078001004be002e009000a0b8910015
:10409c001e0090004200dd000080e800008040001f
:1040ac001003be008800780006007800000ab800f3
:1040bc0007c0b900050178000001410009b0b90042
:1040cc00000141008202780041a8de00cf80de00b2
:1040dc000a0040008b8048008089be001e007800da
:1040ec00a0009000010f78001e0090000000e80076
:1040fc00100798002e00900020b891001000780056
:10410c008000e8001e009000808f5000d7ff3c001c
:10411c002e00900000b99100020f780010002000d2
:10412c0010079800220037002e0090002005900008
:10413c00b00590001e0078001004be002e00900008
:10414c00a0b891001e0090004200dd00a007b00056
:10415c00008040001003be00880078000600780044
:10416c00000ab80007c0b900050178000001410041
:10417c0009b0b900000141008202780041a8de00bc
:10418c00cf80de000000550081805d002e01900084
:10419c0020019800310198001e007800a0019000c9
:1041ac00030f78001e0090000000e8001007980034
:1041bc002e00900020b89100100078008000e800dc
:1041cc001e009000808f5000d7ff3c002e00900006
:1041dc0000b891001000be002e0190002001980044
:1041ec00310198002e009000b0009000200090004b
:1041fc004f0678004f05be004f04be000080fa0049
:10420c00000006000a00fa00400798006000b800a1
:10421c0010079800210798004e00900080b891007c
:10422c00010f78000000eb00300798000e003700fb
:10423c001e0078001001be001e009000ae00900021
:10424c000000410081804900100798002107980068
:10425c001e007800a0009000010f78003e00900036
:10426c000000e800300798003e009000ee0f500070
:10427c00efff3400f0002000300798000e003700ec
:10428c001e0078001001be001e009000ae009000d1
:10429c0002005000838058001007980021079800f6
:1042ac001e007800a0009000010f78003e009000e6
:1042bc000000e800300798003e009000fd0f500011
:1042cc00efff34009e009000a00f2000000ab80001
:1042dc001e0090006000b90005017800000141004b
:1042ec00ae009000a00f20000088b9000001410032
:1042fc0082027800120e2000030020000400be0091
:10430c0026f107004e01900070b9990001019a0046
:10431c004e0090008000920070b891000080fa006e
:10432c00000006000200fa00000f78001e00780062
:10433c0010019200a00192001e007800b0009000c5
:10434c002000900002004000838048001e0178008d
:10435c0010019a0021019a001e007800a000920022
:10436c00100092000080fa00000006000400fa0021
:10437c00000f7800110798001e0078009e00900036
:10438c00010878000080fa00000006000600fa0020
:10439c00200798000000eb00100798002e019000f9
:1043ac006000b80030019a0041019a002e00900084
:1043bc0090b89100010f78002e009000300192000f
:1043cc00c00192001e0078001000be0002004000e8
:1043dc00838048002e01900030019a0041019a0020
:1043ec001e007800a0009000010f78001e009000c5
:1043fc000000e800100798002e00900010b8910003
:10440c009e0f5000ecff3a002e00900030029200fc
:10441c00c00292001e0090006101b9000400be00b1
:10442c00def007002e01900030019a0041019a0045
:10443c002e009000c0009200300092000080fa0024
:10444c00000006000e00fa00889fbe0020079800ae
:10445c0032079800430798005407980065079800a6
:10446c003e009000ce009000fef007000004be005d
:10447c005e009000ee009000faf007000001be0014
:10448c000800be0083f007002e01900050019a0036
:10449c0061019a002e009000e00092005000920002
:1044ac000200200003702400ccf10700008fbe0036
:1044bc001e00be000200200003f8230014f10700c8
:1044cc000200200003f02300c3f007000000e0000e
:1044dc0001003d00050037000200200003f8230016
:1044ec001e00be000ef00700008fbe001e00be00b6
:1044fc00bbf007002e01900030b9990041b999002a
:10450c004f04be000080fa00000006000a00fa000a
:10451c002007980032079800430798002e0090005f
:10452c003e019000ce01900052009a0063009a0068
:10453c003e009000ce00900002002000037024008a
:10454c00a6f10700008fbe001e00be000200200076
:10455c0003f82300eef007000200200003f0230014
:10456c009df007000000e00001003d000500370051
:10457c000200200003f823001e00be00e8ef070035
:10458c00008fbe001e00be0095f007002e019000ab
:10459c0030b9990041b999000080fa00000006007a
:1045ac000400fa00100798000000eb00000f7800e0
:1045bc00160037009e007800402120000088b900ca
:1045cc00800078001e009000008040006fff070004
:1045dc009e0278009e0078001e0190004021200071
:1045ec000088b9006020b000000041001001be003e
:1045fc001e0290004021200000a8b900a01fb000ae
:10460c00000042000288be001e0fe80030002000af
:10461c009e0f1000e7ff34000080fa000000060037
:10462c001200fa00889fbe008a9fbe008c9fbe00bd
:10463c00600798000000eb00500798006e00900097
:10464c0052ff070010002000400798001d003700a3
:10465c00ce009000402120000088b9008000780036
:10466c006e0090000080400048ff0700ce009000d4
:10467c006e019000402120000088b9006020b0003d
:10468c00000041001001be00de0090006e029000a0
:10469c00402120000088b9006020b00000004200da
:1046ac001000be00800f5100818f590002003d00a8
:1046bc004e009000500798004e0090000000e8005b
:1046cc00400798004e009000e30f5000e0ff3400cc
:1046dc000000eb004007980030003700ce0290003d
:1046ec00de0090006e019000402120000088b9008f
:1046fc006020b000000041001001be006e0290006e
:10470c004021200000a8b900a01fb000000042000a
:10471c000288be00de0090006e0190004021200057
:10472c000088b9006020b000000041001000be00fd
:10473c004cf007002007980031079800ce0090003d
:10474c006e019000402120000088b9006020b0006c
:10475c00000041001000be0042f00700008fbe00b8
:10476c001e01be002e009000be009000c9ef070095
:10477c000001be00ce009000402120000088b9004e
:10478c00800078006e009000008040005fff070002
:10479c004e0090000000e800400798004e0090008a
:1047ac00e30f5000cdff3400ee009000208320007a
:1047bc00008040001006be00ee0090002084200017
:1047cc00008040001001be0072079800030f980093
:1047dc00ee009000e0612000008040001003be005d
:1047ec00ee009000e0622000008040001004be004b
:1047fc00ee009000a0402000008040001005be009c
:10480c00ee009000a0412000008040001001be008e
:10481c006e00900030ba9100c0ba91006e0090000a
:10482c00c0009200300092008c9fbe007e0690006b
:10483c008e0e90008c9fbe00869fbe00889fbe008f
:10484c008a9fbe00829fbe00849fbe00809fbe00d8
:10485c00e07b2900801f7800c0bc210070f20700ab
:10486c00e0fd2f00808747008080eb00c0bc21005a
:10487c008d0807004f06be004f05be004f04be005a
:10488c000080fa00000006000200fa00000f780019
:10489c001e00780070019200800992001e007800c2
:1048ac00e0b8910050b8910000005100818059008f
:1048bc00ecef07000001be0000002000a14724001f
:1048cc0074ef07001e01780050019a0061019a00f4
:1048dc000080fa00000006000600fa00100798009d
:1048ec00210798000000eb00000f78001e009000dc
:1048fc00ae00900021b899000000eb00000f78008a
:10490c002d0037009e0178001e0090000110200041
:10491c00808040001e0078004300dd0000804000d5
:10492c00680140009e0090004318dd004010b0006c
:10493c00823078009e01e8001e00900001102000db
:10494c00808040001e0078004300dd0000814000a4
:10495c009e0090004318dd006010b000823078009b
:10496c009e0178001e009000f00040001e007800b0
:10497c004300dd0000804000680140009e00900074
:10498c004318dd0074004000823078009e01e8007e
:10499c001e009000f00040001e0078004300dd0077
:1049ac00008140009e0090004318dd00760040001e
:1049bc00823078001e0fe800c00120009e0f10000e
:1049cc00d0ff34001e0178001e0090000310200060
:1049dc00808141009e0090004310dd004010b0002b
:1049ec00833078001e009000011020008080400071
:1049fc001e0078004300dd00808040001e00900007
:104a0c00310099001e0178001e009000f00140005a
:104a1c009e0090004310dd0074004000833078004d
:104a2c001e009000f00040001e0078004300dd00e6
:104a3c00808040001e009000310898001e009000fd
:104a4c0001102000808040001e00900011b89900d9
:104a5c001e009000f00040001e00900001b899006c
:104a6c000080fa00000006000e00fa0020079800f3
:104a7c0032079800430798003e009000ce0090004b
:104a8c00008fbe0020f280000000e0000400320025
:104a9c003e009000ce0090004d000700008fbe003d
:104aac001e00780060079800ee0090000100e00006
:104abc0003003d006e0190000201ea0062079800bd
:104acc0010f28000ee019000808f510007003c0036
:104adc00110020002e009000cdfc07002e0090004d
:104aec001e01be0062109800731098002e009000fa
:104afc00f010900060109000000178002e009000e3
:104b0c009018900000189000000051005007980079
:104b1c00de0190000300e00003003d005e00900009
:104b2c000000ea00500798002e009000de00900074
:104b3c00511098002e00900060119000f011900020
:104b4c002e0090009018900000189000800f5100db
:104b5c00818f590004003400ae009000100020003a
:104b6c00c010980003003700ae0090000000eb006e
:104b7c00c01098000080fa00000006000400fa0043
:104b8c00008fbe00205a80006103b90086007800b7
:104b9c001e007800000ab8001e00900000b0b9009a
:104bac0005017800000141001e0078000780b90063
:104bbc0000014100820278004329dd004d20de0017
:104bcc0000007100cda8de000080fa000000060095
:104bdc000400fa00008fbe00405a80006103b90047
:104bec00860078001e007800000ab8001e009000b5
:104bfc0000b0b90005017800000141001e007800ea
:104c0c000780b90000014100820278004329dd00d1
:104c1c004d20de0000007100cda8de000080fa00ff
:104c2c00000006000800fa002007980020a02000d1
:104c3c00100798000000eb00000f78005f003700b1
:104c4c002e009000e10f500057003a001e0090001b
:104c5c0060119000f01190001e00900090189000d0
:104c6c0000189000800f5100818f59000e00320007
:104c7c001e009000f010900060109000300798001b
:104c8c003e0090000000e00003003d00be009000dc
:104c9c008100ea003107980010f28000be009000fd
:104cac00808f5000080034001e00900030109000df
:104cbc000000e0003e0032008000eb001e0090007f
:104ccc0053fc07003a0037001e0090003010900093
:104cdc000000e00003003a00110020001e009000cc
:104cec004bfc07001e00900060119000f01190002a
:104cfc001e0090009018900000189000800f51003a
:104d0c00818f59000c003400110020001e0090000f
:104d1c0017fc07001e0090009018900000189000df
:104d2c0061004000e08048001e01900000199800ce
:104d3c0011199800140037001e00900060119000ab
:104d4c00f01190001e009000901890000018900038
:104d5c00800f5100818f59000b003d008000eb004b
:104d6c001e00900002fc07001e009000901890009e
:104d7c000018900061005000e08058001e01900067
:104d8c0000199800111998001e00900090189000be
:104d9c000018900079ff07001e0190002019980060
:104dac0031199800020037001e0090000afc070021
:104dbc0000a42000100798001e0fe800100020002f
:104dcc009e0f10009eff34000080fa0000000600c9
:104ddc000400fa00000f78001e0078001000780024
:104dec008000eb00110798000000e00002003a0080
:104dfc0010002000100798001e0078009e00900004
:104e0c00010878001e007800100078000000e00017
:104e1c00080032008080eb00208129002207070067
:104e2c0060ee800071ee800040ce880051ce88008c
:104e3c00070037008080eb00908229001a070700da
:104e4c0040ce800051ce800060ee880071ee88006c
:104e5c000000eb00c0ee88000080fa0000000600a5
:104e6c000400fa0010079800650707000000e00036
:104e7c00080032002d070700000f78009e00780014
:104e8c00c09c210031070700c19c21001e0090002e
:104e9c00020007000080fa00000006000400fa007f
:104eac00000f780011079800010220001e804000be
:104ebc001e017800f00041001e017800801f780070
:104ecc00811f7800821f780010842900801f7800d1
:104edc001e009000bef30700e88757001e00780004
:104eec00940007000080fa00000006000800fa0099
:104efc00000f7800110798002207980033079800dc
:104f0c009e00780010002000908898001e00780009
:104f1c00be009000010878001e0078009e009000f2
:104f2c00110098001e007800ae009000210098003f
:104f3c000080fa00000006000400fa001007980038
:104f4c0031002000a0842900d70607000000eb00e8
:104f5c00000f7800190037001e00900090009000a0
:104f6c001e00780000004000008040001000780017
:104f7c0094f00700000178001e0090009000900053
:104f8c001e007800000040000080400010007800f7
:104f9c0082007800c40607001e0090001000780004
:104fac000000e9009e0f50000300340011002000a7
:104fbc00e0842900bc0607001e0fe8001e009000cc
:104fcc00100078009e0f5000e3ff3c0051002000c1
:104fdc0000852900b40607001e009000040007009d
:104fec000000eb0040f088000080fa000000060092
:104ffc000400fa0010079800310020006085290099
:10500c00a90607000000eb00000f7800190037001c
:10501c001e009000a00090001e00780000004000d0
:10502c00008040001000780066f007000001780056
:10503c001e009000a00090001e00780000004000b0
:10504c00008040001000780082007800960607006f
:10505c001e009000100078000000e9009e0f500028
:10506c000300340011002000e08429008e060700a4
:10507c001e0fe8001e009000100078009e0f5000dc
:10508c00e3ff3c0051002000a085290086060700a4
:10509c000080fa00000006000400fa0010079800d7
:1050ac0040f080000000e000030032001e00900081
:1050bc00a1ff07001d0037003100200000862900e9
:1050cc00790607000000eb00000f78001000370095
:1050dc001e009000660140001e0078006a00b900b6
:1050ec00000041008080eb006f0607001e0090005e
:1050fc00100078000000e9009e0f500003003400ff
:10510c0011002000e0842900670607001e0fe8004c
:10511c001e009000100078009e0f5000ecff3c0029
:10512c0051002000408629005f0607000080fa002d
:10513c00000006000c00fa00889fbe008a9fbe008b
:10514c008c9fbe00100798001e009000520020009b
:10515c00a186290021f007000000e00003003a00be
:10516c0060dd21001aff07004a0237001e00900084
:10517c00220020000187290018f007000000e00041
:10518c0006003a0010002000a0ee8800e1ff2f007e
:10519c0030872900440607003e0237001e009000ad
:1051ac0052002000618829000cf007000000e0008c
:1051bc0006003a000000eb00a0ee88008080eb00b7
:1051cc00c088290038060700320237001e00900004
:1051dc0052002000918a290000f007000000e00036
:1051ec0008003a001e0090000002b000d1ef07004a
:1051fc000000e00027023a00c0b42000e8fc0700e1
:10520c00240237001e00900032002000f18a290091
:10521c00f2ef07000000e000e3003a001e009000ef
:10522c0070004000a2002000318b2900ebef07003a
:10523c000000e00005003a001e0090000002b000e3
:10524c00bcef070080ee8800120237001e009000b1
:10525c007000400082002000e18b2900dfef070086
:10526c000000e0000f003a001e0090000002b000a9
:10527c00b0ef070010ef88008080eb00708c2900e5
:10528c00090607001e0090000002b0008080eb00b1
:10529c00050607008080eb00108e2900020607002f
:1052ac00fc0137001e0090007000400092002000ae
:1052bc00718e2900c9ef07000000e0000f003a00d2
:1052cc001e0090000002b0009aef070000ef88006b
:1052dc008080eb00108f2900f30507001e00900062
:1052ec000002b0008080eb00ef0507008080eb002f
:1052fc00108e2900ec050700e60137001e00900017
:10530c00700040009200200091902900b3ef07003c
:10531c000000e0000f003a001e0090000002b000f8
:10532c0084ef070030ef88008080eb00209129008b
:10533c00dd0507001e0090000002b0008080eb002d
:10534c00d90507008080eb00108e2900d6050700d8
:10535c00d00137001e009000700040009040780093
:10536c00909229001040780080cf50001f003a0026
:10537c0020f280000000e000150032001e009000ba
:10538c000002b00069ef070002002000832c24000b
:10539c0012ee070012ed07000001be0020a0200055
:1053ac00b1fd070060518000801f7800b092290089
:1053bc00801f7800c0bc210099ef0700e4875700dc
:1053cc008080eb00c0bc2100b7050700b10137009d
:1053dc001e0090000002b00056ef07006101b900fa
:1053ec0020a02000a0fd0700aa0137001e0090009d
:1053fc007000400090407800009429001040780024
:10540c0080cf500015003a0020f280000000e00030
:10541c000b0032001e0090000002b00043ef0700aa
:10542c0002002000832c2400eced0700ecec0700bc
:10543c000001be0000a420008bfd07009501370081
:10544c001e0090000002b0003aef07006101b900a5
:10545c0000a4200084fd07008e0137001e00900080
:10546c007000400090407800209429001040780093
:10547c0080cf50001d003a00c0392100c3fb07004b
:10548c000004be001e0090000002b00027ef0700d1
:10549c000200200003122400d0ed070032ad800082
:1054ac0043ad80007bec0700cdec070000005400fe
:1054bc0081805c00b0ac8800c1ac8800b0ac8000ce
:1054cc00c1ac8000809fbe0070942900801f7800c2
:1054dc00c0bc210052ef0700e68757008080eb002c
:1054ec00c0bc2100700507006a0137001e00900047
:1054fc0070004000904078008096290010407800a1
:10550c0080cf500025003a000000eb00000f78001f
:10551c001e0037001e0478001e0090000002b00030
:10552c0004ef07006101b9004021200000c0b90060
:10553c00e8004000c0b42000008040000288be009b
:10554c001e0278009e007800402120000088b900df
:10555c00e8004000c0b42000008040001001be00f4
:10556c00803e200001002000020150008381580081
:10557c004021200000a0b900ec004000c0b4200085
:10558c00008040000288be001e0fe8004000200092
:10559c009e0f1000dfff34003e0137001e0090000c
:1055ac00410107003b0137001e0090004200200023
:1055bc00e196290009ef07000000e0001e003a0008
:1055cc001e009000700040007200200031972900ee
:1055dc0002ef07000000e00006003a000000eb00bc
:1055ec0020f088008080eb00b09729002e05070082
:1055fc00280137001e00900070004000420020007f
:10560c00419b2900f5ee07000000e00007003a007e
:10561c008000eb0020a02000fdf907008000eb00cb
:10562c0000a42000faf907001a0137001e009000b0
:10563c001d010700170137001e00900052002000ca
:10564c00b19b2900e5ee07000000e0000a003a00db
:10565c001e0090007000400072002000319729005d
:10566c00deee07000000e0000a013a001000200006
:10567c0020f08800070137001e0090002200200057
:10568c00119c2900d5ee07000000e0001e003a0036
:10569c0020f280000000e000100032007051800009
:1056ac008151800035fd07000004be001e009000f3
:1056bc000002b0009dee070002002000832c2400a5
:1056cc0046ed070046ec07000801400089814800c0
:1056dc0020a02000e4fc0700ee0037007851800089
:1056ec00895180001e0090000002b00091ee07006e
:1056fc00cf80de00080140008981480020a02000f6
:10570c00d9fc0700e30037001e00900022002000a7
:10571c00419c2900b1ee07000000e0001e003a0099
:10572c0020f280000000e000100032007051800078
:10573c008151800011fd07000004be001e00900086
:10574c000002b00079ee070002002000832c240038
:10575c0022ed070022ec07000001540081815c005f
:10576c0020a02000c0fc0700ca0037007851800040
:10577c00895180001e0090000002b0006dee070001
:10578c00cf80de000001540081815c0020a020004d
:10579c00b5fc0700bf0037001e009000220020005f
:1057ac00719c29008dee07000000e0001e003a00fd
:1057bc0020f280000000e0001000320060538000f6
:1057cc0071538000edfc07000004be001e00900029
:1057dc000002b00055ee070002002000832c2400cc
:1057ec00feec0700feeb0700080140008981480031
:1057fc0000a420009cfc0700a60037006853800022
:10580c00795380001e0090000002b00049ee0700a2
:10581c00cf80de00080140008981480000a42000f0
:10582c0091fc07009b0037001e0090002200200016
:10583c00a19c290069ee07000000e0001e003a0060
:10584c0020f280000000e000100032006053800065
:10585c0071538000c9fc07000004be001e009000bc
:10586c000002b00031ee070002002000832c24005f
:10587c00daec0700daeb07000001540081815c00d0
:10588c0000a4200078fc07008200370068538000d9
:10589c00795380001e0090000002b00025ee070036
:1058ac00cf80de000001540081815c0000a4200048
:1058bc006dfc0700770037001e00900022002000ce
:1058cc00d19c290045ee07000000e0001b003a00c7
:1058dc00801821004bfa07000006be0040f720009c
:1058ec0048fa07000004be0000d6200045fa070065
:1058fc000005be00c0b4200042fa070062ee800032
:10590c0073ee80008c9fbe00889fbe008a9fbe00f5
:10591c00809fbe00829fbe00309d2900801f7800b2
:10592c00c0bc21003eee0700f68757008080eb00dc
:10593c00c0bc21005c040700560037001e0090001c
:10594c0042002000f1a0290024ee07000000e00036
:10595c004e003a001e009000700040003200200003
:10596c0041a129001dee07000000e00049003a00ab
:10597c00e05380001000be000271220003002000e2
:10598c0087ec0700500798005e0190000200e000d1
:10599c0003003d00de0190008301ea0053079800ec
:1059ac00e05380001000be000271220003002000b2
:1059bc007aeb07003007980041079800f0518000ff
:1059cc001000be00027122000300200074ec0700de
:1059dc00200798002e0090000000e00003003d001e
:1059ec002e0190000201ea0022079800f05180007d
:1059fc001000be00027122000300200067eb0700bc
:105a0c00de019000831f78003e019000ce019000d3
:105a1c00829fbe00ae019000831f7800809fbe0065
:105a2c0080a12900801f7800c0bc2100fced07007c
:105a3c00ee8757006000b80090518800a151880093
:105a4c006000b80080538800915388006000b80053
:105a5c00b0518800c15188006000b800a053880084
